:020000040000FA
:0400000007EF00F016
:0A000800428266ED0DF0C2EF0EF02B
:10080000004154443932393130353936373B0043B1
:10081000415544414C494D4554524F00415400000C
:100820000750800B106E07500724126E06AE1BEFA8
:1008300004F01DEF04F01EEF04F012801250D8B443
:1008400024EF04F026EF04F03BEF04F01228D8A4C4
:100850002CEF04F02EEF04F036EF04F0000E046EDF
:10086000000E056E000E066E000E076E068E000E60
:10087000076E43EF04F0000E046E000E056E000ECE
:10088000066E000E076E0B50800B116E1050111883
:10089000D8B44DEF04F04FEF04F050EF04F0108C9B
:1008A0000B500B24116E0AAE58EF04F05AEF04F00F
:1008B0005BEF04F011801150D8B461EF04F063EFE6
:1008C00004F078EF04F01128D8A469EF04F06BEF7E
:1008D00004F073EF04F0000E086E000E096E000EB7
:1008E0000A6E000E0B6E0A8E000E0B6E80EF04F087
:1008F000000E086E000E096E000E0A6E000E0B6EE2
:100900001250115CD8B087EF04F089EF04F0B0EF1B
:1009100004F010AC8EEF04F090EF04F092EF04F0CE
:10092000800E101A12C013F011C012F013C011F093
:1009300004C013F008C004F013C008F005C013F0A1
:1009400009C005F013C009F006C013F00AC006F094
:1009500013C00AF007C013F00BC007F013C00BF070
:10096000000E136E125011C00CF00D6A0C5E000EDA
:100970000D5A0DBEC5EF04F00D5009E11A0E0C5CC6
:10098000D8A0C5EF04F0C7EF04F0FEEF04F0045068
:10099000051006100710D8A4D0EF04F0D3EF04F030
:1009A000010ED4EF04F0000E136E000E046E000E64
:1009B000056E000E066E000E076E11C012F007EFF6
:1009C00005F013A0E6EF04F0E8EF04F0EEEF04F01A
:1009D000D89013300109136EF0EF04F0D890133261
:1009E00004A0F5EF04F0F7EF04F0F8EF04F0138E35
:1009F00007340732063205320432122A1150125CD3
:100A0000D8A005EF05F007EF05F0E1EF04F010BC0A
:100A10000CEF05F00EEF05F04EEF05F01250D8A4E4
:100A200014EF05F016EF05F020EF05F0000E046E50
:100A3000000E056E000E066E000E076E6FEF06F0DC
:100A400008500426095005220A5006220B5007229E
:100A500007A02DEF05F02FEF05F0DBEF05F013A059
:100A600034EF05F036EF05F03CEF05F0D890133089
:100A70000109136E3EEF05F0D890133204A043EF46
:100A800005F045EF05F046EF05F0138E0734073209
:100A9000063205320432122ADBEF05F00850045CFE
:100AA000095005580A5006580750800A0C6E0B5022
:100AB000800A0C58D8B05FEF05F061EF05F08CEFBD
:100AC00005F00450085C0C6E055009580D6E065078
:100AD0000A580E6E07500B580F6EFF0E0C24046E52
:100AE000FF0E0D20056EFF0E0E20066EFF0E0F206E
:100AF000076E800E101A136C1350D8A482EF05F005
:100B000084EF05F094EF05F0010E0426000E052297
:100B10000622072294EF05F00850045E0950055A9A
:100B20000A50065A0B50075A0450051006100710B9
:100B3000D8A49DEF05F09FEF05F0D4EF05F013501A
:100B4000D8A4A5EF05F0A7EF05F0D4EF05F0000E4F
:100B5000046E000E056E000E066E000E076E6FEF3F
:100B600006F0D890043605360636073613AEBBEFCE
:100B700005F0BDEF05F0BEEF05F0048013A0C3EF54
:100B800005F0C5EF05F0C9EF05F0D8801336CBEFBF
:100B900005F0D89013361250D8B4D1EF05F0D3EF4A
:100BA00005F0D4EF05F0120606AED9EF05F0DBEF45
:100BB00005F0B1EF05F0000E116E13AEE2EF05F097
:100BC000E4EF05F0FCEF05F013C00CF07F0E0C16FF
:100BD000D8B4EDEF05F0EFEF05F0F3EF05F0010EFF
:100BE000116EFCEF05F004A0F8EF05F0FAEF05F048
:100BF000FCEF05F0EFEF05F01150D8B402EF06F06E
:100C000004EF06F02FEF06F0010E0426000E052279
:100C10000622072207A00FEF06F011EF06F02FEFD4
:100C200006F004C00CF005C00DF006C00EF007C0C1
:100C30000FF00F340F320E320D320C320CC004F0B4
:100C40000DC005F00EC006F00FC007F01228D8B492
:100C50002CEF06F02EEF06F02FEF06F0122A1228E6
:100C6000D8B435EF06F037EF06F03FEF06F012503C
:100C7000D8A43DEF06F03FEF06F051EF06F0000E6E
:100C8000046E000E056E000E066E000E076E12500A
:100C9000D8A44DEF06F04FEF06F051EF06F0000E2E
:100CA000106E12A056EF06F058EF06F05BEF06F05C
:100CB000068E5CEF06F0069ED8901230076E10AEDE
:100CC00064EF06F066EF06F067EF06F0078E04C0EB
:100CD00004F005C005F006C006F007C007F01200DA
:100CE0000750800B146E075007241B6E06AE7BEF77
:100CF00006F07DEF06F07EEF06F01B801B50D8B4A7
:100D000084EF06F086EF06F09BEF06F01B28D8A4D0
:100D10008CEF06F08EEF06F096EF06F0000E046EF4
:100D2000000E056E000E066E000E076E068E000E9B
:100D3000076EA3EF06F0000E046E000E056E000EA7
:100D4000066E000E076E0B50800B141A0B500B240E
:100D50001C6E0AAEAEEF06F0B0EF06F0B1EF06F093
:100D60001C801C50D8B4B7EF06F0B9EF06F0CEEFF8
:100D700006F01C28D8A4BFEF06F0C1EF06F0C9EFBB
:100D800006F0000E086E000E096E000E0A6E000ED0
:100D90000B6E0A8E000E0B6ED6EF06F0000E086E7C
:100DA000000E096E000E0A6E000E0B6E0850091040
:100DB0000A100B10D8A4DFEF06F0E1EF06F0F9EF10
:100DC00006F0000E046E000E056E000E066E000E9C
:100DD000076E800E06127F0E07121450071204C011
:100DE00004F005C005F006C006F007C007F03CEFB0
:100DF00008F01B50D8A4FFEF06F001EF07F00BEF4F
:100E000007F0000E046E000E056E000E066E000E5A
:100E1000076E3CEF08F01C501BC00CF00D6A0C5E16
:100E2000000E0D5A7F0E0C24156E000E0D20166E4E
:100E300004C010F005C011F006C012F007C013F096
:100E4000000E046E000E056E000E066E000E076E9C
:100E5000000E176E000E186E000E196E000E1A6E40
:100E6000000E1C6E6CEF07F01C50D8B43AEF07F080
:100E70003CEF07F053EF07F0D890103611361236DA
:100E80001336D89004360536063607361AAE4BEFC1
:100E900007F04DEF07F04EEF07F00480D8901736BB
:100EA000183619361A360850105C095011580A5075
:100EB00012580B501358D8A060EF07F062EF07F0FC
:100EC0006BEF07F01A8C0850105E0950115A0A5047
:100ED000125A0B50135A1C2A190E1C6472EF07F099
:100EE00074EF07F034EF07F01050111012101310C8
:100EF000D8B47DEF07F07FEF07F097EF07F017808A
:100F000097EF07F0D89004360536063607361AAE46
:100F10008CEF07F08EEF07F08FEF07F00480D8908A
:100F20001736183619361A361506D8A0160606AE24
:100F30009CEF07F09EEF07F082EF07F0000E1C6EAB
:100F40001AAEA5EF07F0A7EF07F0CBEF07F0FF0E03
:100F500017140C6EFF0E18140D6EFF0E19140E6E82
:100F60007F0E1A140F6E0C500D100E100F10D8B407
:100F7000BCEF07F0BEEF07F0C2EF07F0010E1C6EEA
:100F8000CBEF07F004A0C7EF07F0C9EF07F0CBEFF6
:100F900007F0BEEF07F01C50D8B4D1EF07F0D3EF45
:100FA00007F0F7EF07F0010E0426000E05220622D7
:100FB000072207A0DEEF07F0E0EF07F0F7EF07F0FA
:100FC00004C00CF005C00DF006C00EF007C00FF015
:100FD0000F340F320E320D320C320CC004F00DC043
:100FE00005F00EC006F00FC007F0154A162A16BE0F
:100FF00002EF08F0165008E11528D8A002EF08F01B
:1010000004EF08F00FEF08F0000E166E1568000EE2
:10101000046E000E056E000E066E000E076E16BE04
:101020001CEF08F0165006E11504D8B01AEF08F0CE
:101030001CEF08F02AEF08F0000E166E000E156E79
:10104000000E046E000E056E000E066E000E076E9A
:10105000000E146E15C01BF01BA031EF08F033EF2B
:1010600008F036EF08F0068E37EF08F0069ED890AD
:101070001B30076EEDEF06F01200000E306E1B0EF7
:10108000316E370E326E4C0E336E28C004F029C01C
:1010900005F02AC006F02BC007F0000E22EC09F084
:1010A00004C02CF005C02DF006C02EF007C02FF0B4
:1010B00030C004F031C005F032C006F033C007F094
:1010C0002CC008F02DC009F02EC00AF02FC00BF084
:1010D00070EC06F004C030F005C031F006C032F00C
:1010E00007C033F02B502A1008E128044B0E295872
:1010F000D8B07DEF08F07FEF08F09CEF08F0AC94DB
:1011000030C004F031C005F032C006F033C007F043
:10111000000E086E000E096E800E0A6E420E0B6EF7
:1011200070EC06F004C030F005C031F006C032F0BB
:1011300007C033F0B7EF08F0AC8430C004F031C022
:1011400005F032C006F033C007F0000E086E000E46
:10115000096E800E0A6E410E0B6E70EC06F004C034
:1011600030F005C031F006C032F007C033F030C0B7
:1011700004F031C005F032C006F033C007F0000EB5
:10118000086E000E096E800E0A6EBF0E0B6E10EC1C
:1011900004F004C030F005C031F006C032F007C0E2
:1011A00033F030C004F031C005F032C006F033C077
:1011B00007F061EC0CF004C028F005C029F006C06F
:1011C0002AF007C02BF028C004F029C005F02AC07F
:1011D00006F02BC007F0000E22EC09F004C018F056
:1011E00005C019F006C01AF007C01BF030C014F09B
:1011F00031C015F032C016F033C017F09FEC0EF07E
:1012000014C01CF015C01DF016C01EF017C01FF052
:10121000000E206E000E216E000E226E3F0E236E19
:10122000E4EC0CF0D8A017EF09F019EF09F01FEF6C
:1012300009F0010E2826000E29222A222B2228C07E
:10124000AFFF12000C6E0C50D8B429EF09F02BEF51
:1012500009F04DEF09F007BE32EF09F030EF09F069
:101260004DEF09F004C008F005C009F006C00AF00F
:1012700007C00BF0081E091E0A1E0B1E082A000ECE
:1012800009220A220B2208C00EF009C00FF00AC082
:1012900010F00BC011F055EF09F004C00EF005C0BE
:1012A0000FF006C010F007C011F004500510061032
:1012B0000710D8A45EEF09F060EF09F06AEF09F0BB
:1012C000000E046E000E056E000E066E000E076E18
:1012D000FBEF09F0960E0D6E74EF09F00D2AD89011
:1012E000113210320F320E32000E0E14086E000E44
:1012F0000F14096E000E10140A6EFE0E11140B6E00
:10130000085009100A100B10D8A489EF09F08BEFD0
:1013100009F06EEF09F099EF09F00D2A010E0E2683
:10132000000E0F2210221122D890113210320F32EB
:101330000E32000E0E14086E000E0F14096E000E11
:1013400010140A6EFF0E11140B6E085009100A10CB
:101350000B10D8A4AEEF09F0B0EF09F08DEF09F053
:10136000B8EF09F00D06D8900E360F36103611364C
:1013700010BEBDEF09F0BFEF09F0C7EF09F0020E94
:101380000D60C5EF09F0C7EF09F0B2EF09F00DB03D
:10139000CCEF09F0CEEF09F0CFEF09F0109ED89016
:1013A0000D320DC008F0096A0A6A0B6A08C00BF01A
:1013B0000A6A096A086A08500E1209500F120A5088
:1013C00010120B5011120C50D8B4E9EF09F0EBEFEA
:1013D00009F0F3EF09F007BEF2EF09F0F0EF09F0C2
:1013E000F3EF09F0118E0EC004F00FC005F010C02D
:1013F00006F011C007F012000F0EC112F00E926E2F
:10140000FC0E946E95909592000E896E000E8B6E78
:10141000000E8C6EF28EF28C000E056E640E046E61
:10142000D5EC0EF0000E056E640E046EFAEC0EF0B4
:10143000D59EDBEC0BF00C0E47EC0BF0000E076EAC
:101440000F0E086E080E096E010EC9EC0DF0EFECE0
:101450000EF0800E286E250E296E000E2A6E000EEC
:101460002B6E3DEC08F08B828B90010E56EC0EF04B
:10147000B70E356EA10E346EC40EE82EFED7342E94
:10148000FCD7352EFAD7B70E356EA10E346EC40ECA
:10149000E82EFED7342EFCD7352EFAD7B70E356E90
:1014A000A10E346EC40EE82EFED7342EFCD7352E96
:1014B000FAD73D503E10D8B460EF0AF062EF0AF060
:1014C00081EF0AF037503810D8A469EF0AF06BEFBB
:1014D0000AF077EF0AF0010E056E080E066E7BEC3F
:1014E0000EF0000E386E010E376E7DEF0AF01C0E06
:1014F000056E080E066E7BEC0EF0000E3E6E000EC2
:101500003D6E3F504010D8B488EF0AF08AEF0AF0E1
:1015100059EF0AF0000E366E9CEF0AF036C007F065
:10152000600E3624D96EDA6A000EDA22DF50086EB9
:10153000020E1BEC0EF0362A4150365CD8A0A3EF09
:101540000AF0A5EF0AF08EEF0AF0000E416E000ED1
:10155000406E000E3F6E8C9059EF0AF007EF00F0DE
:10156000066E8C968C84046A06AE01D0042A010EA5
:101570000416043204328C5004187F0B04188C6E4D
:1015800006C004F0060E056ED8900432052EC4EF96
:101590000AF0010E0416043A044604468C5004185E
:1015A000BF0B04188C6E06C004F0050E056ED890B3
:1015B0000432052ED7EF0AF0010E0416043A044651
:1015C0008C500418DF0B04188C6E06C004F0043A2B
:1015D0000F0E0416010E0416043A8C500418EF0B7B
:1015E00004188C6E030EE82EFED700F08C86140EC5
:1015F000E82EFED78C9606C004F0D8900432D8901E
:101600000432D8900432010E0416043204328C5095
:1016100004187F0B04188C6E06C004F0D8900432B6
:10162000D8900432010E0416043A044604468C5045
:101630000418BF0B04188C6E06C004F0D890043256
:10164000010E0416043A04468C500418DF0B0418EB
:101650008C6E06C004F0010E0416043A8C50041877
:10166000EF0B04188C6E030EE82EFED700F08C866C
:10167000140EE82EFED78C96140EE82EFED7560ECA
:10168000046EB60EE82EFED7042EFCD71200066EAE
:101690008C968C94046A06AE01D0042A010E0416BE
:1016A000043204328C5004187F0B04188C6E06C070
:1016B00004F0060E056ED8900432052E5BEF0BF099
:1016C000010E0416043A044604468C500418BF0B5D
:1016D00004188C6E06C004F0050E056ED890043216
:1016E000052E6EEF0BF0010E0416043A04468C50E2
:1016F0000418DF0B04188C6E06C004F0043A0F0EB9
:101700000416010E0416043A8C500418EF0B04184A
:101710008C6E030EE82EFED700F08C86140EE82E99
:10172000FED78C9606C004F0D8900432D8900432CC
:10173000D8900432010E0416043204328C5004187E
:101740007F0B04188C6E06C004F0D8900432D89039
:101750000432010E0416043A044604468C50041860
:10176000BF0B04188C6E06C004F0D8900432010E32
:101770000416043A04468C500418DF0B04188C6ECF
:1017800006C004F0010E0416043A8C500418EF0B46
:1017900004188C6E030EE82EFED700F08C86140E13
:1017A000E82EFED78C96560E046EB60EE82EFED7A7
:1017B000042EFCD71200959E959C959A9598959627
:1017C00095948C9E8C9C8C9A8C988C968C94560EAE
:1017D000076EB60EE82EFED7072EFCD7560E076E04
:1017E000B60EE82EFED7072EFCD7560E076EB60EA5
:1017F000E82EFED7072EFCD7560E076EB60EE82E43
:10180000FED7072EFCD7560E076EB60EE82EFED773
:10181000072EFCD7560E076EB60EE82EFED7072E03
:10182000FCD7010E086E8C9E8C9C8C8A8C888C96C2
:101830008C948C9E8C9C8C8A8C888C868C94140EB8
:10184000E82EFED78C9E8C9C8C8A8C888C968C94EF
:10185000560E076EB60EE82EFED7072EFCD7082AC6
:10186000030E086436EF0CF038EF0CF013EF0CF0B9
:101870008C9E8C9C8C8A8C988C968C948C9E8C9C48
:101880008C8A8C988C868C94140EE82EFED78C9EB5
:101890008C9C8C8A8C988C968C94560E076EB60E07
:1018A000E82EFED7072EFCD7280E47EC0BF0100EC3
:1018B00047EC0BF0010E47EC0BF00F0E47EC0BF072
:1018C0001200063407340D6E0D50D8A46AEF0CF0E8
:1018D0006CEF0CF076EF0CF0000E046E000E056E4F
:1018E000000E066E000E076EE3EF0CF004C008F069
:1018F00005C009F006C00AF007C00BF0200E86EF05
:101900000CF0D8900B320A3209320832E82E81EFFF
:101910000CF008500C6E068EFF0E0416FF0E051616
:10192000FF0E0616000E0716960E0D5E0DBE9DEFFD
:101930000CF09BEF0CF0B3EF0CF00D50800A970FFA
:10194000D8B0A5EF0CF0A7EF0CF0A9EF0CF06CEFFE
:101950000CF0D89007320632053204320D3EA9EF62
:101960000CF0CBEF0CF01F0E0D64B9EF0CF0BBEFD9
:101970000CF0C3EF0CF06CEF0CF0D8900436053689
:10198000063607360D060D50D8A4C9EF0CF0CBEF84
:101990000CF0BDEF0CF00C50D8B4D1EF0CF0D3EF3D
:1019A0000CF0DBEF0CF0071E061E051E046C000E8B
:1019B00005220622072204C004F005C005F006C077
:1019C00006F007C007F01200000E1C14246E000E73
:1019D0001D14256E800E1E14266E7F0E1F14276E9A
:1019E0002450251026102710D8A4F9EF0CF0FBEF97
:1019F0000CF003EF0DF0000E1C6E000E1D6E000EBD
:101A00001E6E000E1F6E000E2014246E000E211498
:101A1000256E800E2214266E7F0E2314276E24500E
:101A2000251026102710D8A418EF0DF01AEF0DF08E
:101A300022EF0DF0000E206E000E216E000E226EC1
:101A4000000E236E1FAE27EF0DF029EF0DF032EFE1
:101A50000DF01C6C1D1ED8B01D2A1E1ED8B01E2AEB
:101A6000800E1F5623AE37EF0DF039EF0DF042EF29
:101A70000DF0206C211ED8B0212A221ED8B0222AB7
:101A8000800E2356000E1C1A000E1D1A000E1E1A80
:101A9000800E1F1A000E201A000E211A000E221AA4
:101AA000800E231A20501C5C21501D5822501E58B5
:101AB00023501F58D8B05FEF0DF061EF0DF064EFC9
:101AC0000DF0D89065EF0DF0D88012000600D9CF48
:101AD00001F0DACF02F09EAA70EF0DF072EF0DF078
:101AE00095EF0DF0AECF03F00350D8B47AEF0DF0C0
:101AF0007CEF0DF094EF0DF08C808C721E0E416027
:101B000084EF0DF086EF0DF094EF0DF0600E4124A0
:101B1000D96EDA6A000EDA2203C0DFFF412A000E16
:101B2000D76E000ED66ED58E9E9AF2A49AEF0DF067
:101B30009CEF0DF0A2EF0DF0000E406E010E3F6E17
:101B4000D59EF2949EA0A7EF0DF0A9EF0DF0C3EF84
:101B50000DF0394A3A2A3ABEB7EF0DF03A5009E192
:101B6000640E395CD8A0B7EF0DF0B9EF0DF0C2EFFD
:101B70000DF08C72000E3E6E010E3D6E000E3A6E40
:101B8000000E396E9E9002C0DAFF01C0D9FF42926A
:101B900011000C6EE0EF0DF00750800F0D6EFDEFA1
:101BA0000DF00750C00F0D6EFDEF0DF00750940FB4
:101BB0000D6EFDEF0DF00750D40F0D6EFDEF0DF023
:101BC0000C500A6E0B6A0B50000AD8B4EAEF0DF005
:101BD000FDEF0DF00A50010AD8B4CCEF0DF0030A66
:101BE000D8B4D1EF0DF0010AD8B4D6EF0DF0070A42
:101BF000D8B4DBEF0DF0FDEF0DF00D5047EC0BF01E
:101C00000CEF0EF008C0F6FF09C0F7FF0800F55012
:101C1000B0EC0AF0084A092A08C0F6FF09C0F7FF2D
:101C20000800F5500009D8A418EF0EF01AEF0EF0D6
:101C300002EF0EF012000B6E32EF0EF00750800F25
:101C40000C6E4FEF0EF00750C00F0C6E4FEF0EF002
:101C50000750940F0C6E4FEF0EF00750D40F0C6E20
:101C60004FEF0EF00B50096E0A6A0A50000AD8B402
:101C70003CEF0EF04FEF0EF00950010AD8B41EEF02
:101C80000EF0030AD8B423EF0EF0010AD8B428EFFF
:101C90000EF0070AD8B42DEF0EF04FEF0EF00C50F7
:101CA00047EC0BF00850B0EC0AF01200066E65EF3E
:101CB0000EF089828980899489967AEF0EF0898462
:101CC0008986899289907AEF0EF00650046E056A33
:101CD0000550000AD8B46FEF0EF07AEF0EF0045002
:101CE000000AD8B459EF0EF0010AD8B45FEF0EF035
:101CF0007AEF0EF0120087EF0EF005C0F6FF06C077
:101D0000F7FF0800F550E4EC0EF0054A062A05C07E
:101D1000F6FF06C0F7FF0800F5500009D8A493EFBE
:101D20000EF095EF0EF07DEF0EF00A0EAD6EACA248
:101D30009CEF0EF09EEF0EF097EF0EF01200000EEB
:101D4000181A000E191A000E1A1A800E1B1A14C047
:101D500004F015C005F016C006F017C007F018C053
:101D600008F019C009F01AC00AF01BC00BF010EC03
:101D700004F004C014F005C015F006C016F007C04A
:101D800017F0120000EE60F01E0EEE6AE806FDE1AC
:101D900000EE37F00B0EEE6AE806FDE1429042924B
:101DA000000EF86E0001FCEF09F0F28AF294D59C67
:101DB000D59AD596D550F80B0309D56E000ED76E7F
:101DC000000ED66ED58E1200046E04C0ADFFACA21C
:101DD000ECEF0EF0EEEF0EF0E7EF0EF01200AC9825
:101DE000AC8AAC9CAB8EAB9CAB88AC84B8969E9A0C
:101DF0009D8A12009E909D80CD8ECD9CCD96CD92D9
:081E0000300ECD12CD8012005E
:020000040020DA
:08000000FFFFFFFFFFFFFFFF00
:020000040030CA
:0E000000040E191EFF8080FF0FC00FE00F409E
:00000001FF
