:020000040000FA
:0400000007EF00F016
:0A00080050822DED0AF069EF0EF0B2
:100800000041542B43495053544152543D225544C6
:1008100050222C2200546573745F636F6D756E698E
:10082000636163696F6E0043415544414C494D45D6
:1008300054524F0032392E31302E31322E313400A5
:1008400041542B434950434C4F53450041542B4393
:10085000495053454E440041542B435354543D2278
:100860000041542B43474154543F00636C61726F05
:100870002E70650043494943520031333100222C28
:1008800000000750800B106E07500724126E06AE52
:100890004CEF04F04EEF04F04FEF04F012801250D2
:1008A000D8B455EF04F057EF04F06CEF04F01228C1
:1008B000D8A45DEF04F05FEF04F067EF04F0000EE2
:1008C000046E000E056E000E066E000E076E068E9C
:1008D000000E076E74EF04F0000E046E000E056E3D
:1008E000000E066E000E076E0B50800B116E10503E
:1008F0001118D8B47EEF04F080EF04F081EF04F01B
:10090000108C0B500B24116E0AAE89EF04F08BEFA4
:1009100004F08CEF04F011801150D8B492EF04F081
:1009200094EF04F0A9EF04F01128D8A49AEF04F092
:100930009CEF04F0A4EF04F0000E086E000E096EA8
:10094000000E0A6E000E0B6E0A8E000E0B6EB1EFDB
:1009500004F0000E086E000E096E000E0A6E000E06
:100960000B6E1250115CD8B0B8EF04F0BAEF04F07F
:10097000E1EF04F010ACBFEF04F0C1EF04F0C3EFFF
:1009800004F0800E101A12C013F011C012F013C040
:1009900011F004C013F008C004F013C008F005C043
:1009A00013F009C005F013C009F006C013F00AC027
:1009B00006F013C00AF007C013F00BC007F013C015
:1009C0000BF0000E136E125011C00CF00D6A0C5E8D
:1009D000000E0D5A0DBEF6EF04F00D5009E11A0E8F
:1009E0000C5CD8A0F6EF04F0F8EF04F02FEF05F060
:1009F0000450051006100710D8A401EF05F004EF0D
:100A000005F0010E05EF05F0000E136E000E046EEA
:100A1000000E056E000E066E000E076E11C012F07D
:100A200038EF05F013A017EF05F019EF05F01FEFF1
:100A300005F0D89013300109136E21EF05F0D8901E
:100A4000133204A026EF05F028EF05F029EF05F09A
:100A5000138E07340732063205320432122A11503F
:100A6000125CD8A036EF05F038EF05F012EF05F074
:100A700010BC3DEF05F03FEF05F07FEF05F01250A1
:100A8000D8A445EF05F047EF05F051EF05F0000E53
:100A9000046E000E056E000E066E000E076EA0EFCF
:100AA00006F008500426095005220A5006220B5071
:100AB000072207A05EEF05F060EF05F00CEF06F0EF
:100AC00013A065EF05F067EF05F06DEF05F0D89026
:100AD00013300109136E6FEF05F0D890133204A0A4
:100AE00074EF05F076EF05F077EF05F0138E07341D
:100AF0000732063205320432122A0CEF06F0085093
:100B0000045C095005580A5006580750800A0C6EBC
:100B10000B50800A0C58D8B090EF05F092EF05F01A
:100B2000BDEF05F00450085C0C6E055009580D6EC1
:100B300006500A580E6E07500B580F6EFF0E0C240D
:100B4000046EFF0E0D20056EFF0E0E20066EFF0ECA
:100B50000F20076E800E101A136C1350D8A4B3EF39
:100B600005F0B5EF05F0C5EF05F0010E0426000E07
:100B7000052206220722C5EF05F00850045E095041
:100B8000055A0A50065A0B50075A04500510061011
:100B90000710D8A4CEEF05F0D0EF05F005EF06F072
:100BA0001350D8A4D6EF05F0D8EF05F005EF06F006
:100BB000000E046E000E056E000E066E000E076E2F
:100BC000A0EF06F0D890043605360636073613AE89
:100BD000ECEF05F0EEEF05F0EFEF05F0048013A069
:100BE000F4EF05F0F6EF05F0FAEF05F0D8801336D4
:100BF000FCEF05F0D89013361250D8B402EF06F08F
:100C000004EF06F005EF06F0120606AE0AEF06F056
:100C10000CEF06F0E2EF05F0000E116E13AE13EFCD
:100C200006F015EF06F02DEF06F013C00CF07F0E66
:100C30000C16D8B41EEF06F020EF06F024EF06F0F5
:100C4000010E116E2DEF06F004A029EF06F02BEF38
:100C500006F02DEF06F020EF06F01150D8B433EF78
:100C600006F035EF06F060EF06F0010E0426000EE8
:100C700005220622072207A040EF06F042EF06F009
:100C800060EF06F004C00CF005C00DF006C00EF0D9
:100C900007C00FF00F340F320E320D320C320CC081
:100CA00004F00DC005F00EC006F00FC007F01228CA
:100CB000D8B45DEF06F05FEF06F060EF06F0122AA1
:100CC0001228D8B466EF06F068EF06F070EF06F071
:100CD0001250D8A46EEF06F070EF06F082EF06F027
:100CE000000E046E000E056E000E066E000E076EFE
:100CF0001250D8A47EEF06F080EF06F082EF06F0E7
:100D0000000E106E12A087EF06F089EF06F08CEF50
:100D100006F0068E8DEF06F0069ED8901230076E14
:100D200010AE95EF06F097EF06F098EF06F0078EFD
:100D300004C004F005C005F006C006F007C007F0C7
:100D400012000750800B146E075007241B6E06AE6E
:100D5000ACEF06F0AEEF06F0AFEF06F01B801B50D5
:100D6000D8B4B5EF06F0B7EF06F0CCEF06F01B28CD
:100D7000D8A4BDEF06F0BFEF06F0C7EF06F0000EF7
:100D8000046E000E056E000E066E000E076E068ED7
:100D9000000E076ED4EF06F0000E046E000E056E16
:100DA000000E066E000E076E0B50800B141A0B50CF
:100DB0000B241C6E0AAEDFEF06F0E1EF06F0E2EF67
:100DC00006F01C801C50D8B4E8EF06F0EAEF06F0FD
:100DD000FFEF06F01C28D8A4F0EF06F0F2EF06F0C3
:100DE000FAEF06F0000E086E000E096E000E0A6E95
:100DF000000E0B6E0A8E000E0B6E07EF07F0000E52
:100E0000086E000E096E000E0A6E000E0B6E085082
:100E100009100A100B10D8A410EF07F012EF07F01A
:100E20002AEF07F0000E046E000E056E000E066E2F
:100E3000000E076E800E06127F0E07121450071266
:100E400004C004F005C005F006C006F007C007F0B6
:100E50006DEF08F01B50D8A430EF07F032EF07F029
:100E60003CEF07F0000E046E000E056E000E066EDD
:100E7000000E076E6DEF08F01C501BC00CF00D6AE1
:100E80000C5E000E0D5A7F0E0C24156E000E0D2008
:100E9000166E04C010F005C011F006C012F007C0B5
:100EA00013F0000E046E000E056E000E066E000EAE
:100EB000076E000E176E000E186E000E196E000EF3
:100EC0001A6E000E1C6E9DEF07F01C50D8B46BEF2D
:100ED00007F06DEF07F084EF07F0D8901036113669
:100EE00012361336D89004360536063607361AAE53
:100EF0007CEF07F07EEF07F07FEF07F00480D890DB
:100F00001736183619361A360850105C0950115821
:100F10000A5012580B501358D8A091EF07F093EFD6
:100F200007F09CEF07F01A8C0850105E0950115A18
:100F30000A50125A0B50135A1C2A190E1C64A3EFA4
:100F400007F0A5EF07F065EF07F010501110121031
:100F50001310D8B4AEEF07F0B0EF07F0C8EF07F00A
:100F60001780C8EF07F0D8900436053606360736E6
:100F70001AAEBDEF07F0BFEF07F0C0EF07F0048037
:100F8000D8901736183619361A361506D8A0160610
:100F900006AECDEF07F0CFEF07F0B3EF07F0000E8E
:100FA0001C6E1AAED6EF07F0D8EF07F0FCEF07F093
:100FB000FF0E17140C6EFF0E18140D6EFF0E191491
:100FC0000E6E7F0E1A140F6E0C500D100E100F10B7
:100FD000D8B4EDEF07F0EFEF07F0F3EF07F0010EF5
:100FE0001C6EFCEF07F004A0F8EF07F0FAEF07F033
:100FF000FCEF07F0EFEF07F01C50D8B402EF08F059
:1010000004EF08F028EF08F0010E0426000E052278
:101010000622072207A00FEF08F011EF08F028EFD3
:1010200008F004C00CF005C00DF006C00EF007C0BB
:101030000FF00F340F320E320D320C320CC004F0B0
:101040000DC005F00EC006F00FC007F0154A162AB5
:1010500016BE33EF08F0165008E11528D8A033EF7C
:1010600008F035EF08F040EF08F0000E166E156836
:10107000000E046E000E056E000E066E000E076E6A
:1010800016BE4DEF08F0165006E11504D8B04BEF30
:1010900008F04DEF08F05BEF08F0000E166E000E42
:1010A000156E000E046E000E056E000E066E000E2C
:1010B000076E000E146E15C01BF01BA062EF08F047
:1010C00064EF08F067EF08F0068E68EF08F0069E00
:1010D000D8901B30076E1EEF07F01200000E306E26
:1010E0001B0E316E370E326E4C0E336E28C004F07C
:1010F00029C005F02AC006F02BC007F0000E53EC03
:1011000009F004C02CF005C02DF006C02EF007C079
:101110002FF030C004F031C005F032C006F033C00B
:1011200007F02CC008F02DC009F02EC00AF02FC027
:101130000BF0A1EC06F004C030F005C031F006C0A1
:1011400032F007C033F02B502A1008E128044B0E70
:101150002958D8B0AEEF08F0B0EF08F0CDEF08F0A6
:10116000AC9430C004F031C005F032C006F033C09A
:1011700007F0000E086E000E096E800E0A6E420E19
:101180000B6EA1EC06F004C030F005C031F006C0D3
:1011900032F007C033F0E8EF08F0AC8430C004F060
:1011A00031C005F032C006F033C007F0000E086E03
:1011B000000E096E800E0A6E410E0B6EA1EC06F059
:1011C00004C030F005C031F006C032F007C033F083
:1011D00030C004F031C005F032C006F033C007F073
:1011E000000E086E000E096E800E0A6EBF0E0B6EAA
:1011F00041EC04F004C030F005C031F006C032F01C
:1012000007C033F030C004F031C005F032C006F042
:1012100033C007F07DEC0CF004C028F005C029F0C5
:1012200006C02AF007C02BF028C004F029C005F042
:101230002AC006F02BC007F0000E53EC09F004C0E2
:1012400018F005C019F006C01AF007C01BF030C036
:1012500014F031C015F032C016F033C017F08CEC2A
:101260000EF014C01CF015C01DF016C01EF017C003
:101270001FF0000E206E000E216E000E226E3F0E3B
:10128000236E00EC0DF0D8A048EF09F04AEF09F00A
:1012900050EF09F0010E2826000E29222A222B22C7
:1012A00028C0AFFF12000C6E0C50D8B45AEF09F0F2
:1012B0005CEF09F07EEF09F007BE63EF09F061EF24
:1012C00009F07EEF09F004C008F005C009F006C07F
:1012D0000AF007C00BF0081E091E0A1E0B1E082A82
:1012E000000E09220A220B2208C00EF009C00FF0DE
:1012F0000AC010F00BC011F086EF09F004C00EF028
:1013000005C00FF006C010F007C011F00450051022
:1013100006100710D8A48FEF09F091EF09F09BEFAA
:1013200009F0000E046E000E056E000E066E000E33
:10133000076E2CEF0AF0960E0D6EA5EF09F00D2A40
:10134000D890113210320F320E32000E0E14086E89
:10135000000E0F14096E000E10140A6EFE0E11140A
:101360000B6E085009100A100B10D8A4BAEF09F040
:10137000BCEF09F09FEF09F0CAEF09F00D2A010E4A
:101380000E26000E0F2210221122D8901132103298
:101390000F320E32000E0E14086E000E0F14096E7E
:1013A000000E10140A6EFF0E11140B6E0850091077
:1013B0000A100B10D8A4DFEF09F0E1EF09F0BEEF3F
:1013C00009F0E9EF09F00D06D8900E360F36103609
:1013D000113610BEEEEF09F0F0EF09F0F8EF09F06A
:1013E000020E0D60F6EF09F0F8EF09F0E3EF09F0F7
:1013F0000DB0FDEF09F0FFEF09F000EF0AF0109ECD
:10140000D8900D320DC008F0096A0A6A0B6A08C04C
:101410000BF00A6A096A086A08500E1209500F1286
:101420000A5010120B5011120C50D8B41AEF0AF0D7
:101430001CEF0AF024EF0AF007BE23EF0AF021EFB9
:101440000AF024EF0AF0118E0EC004F00FC005F070
:1014500010C006F011C007F012000600D9CF01F04D
:10146000DACF02F09EAA37EF0AF039EF0AF08EEFDA
:101470000AF0AECF03F00350D8B441EF0AF043EFC7
:101480000AF08DEF0AF04804D8A449EF0AF04BEFB8
:101490000AF08DEF0AF04604D8A451EF0AF053EF9A
:1014A0000AF069EF0AF01E0E496059EF0AF05BEF8F
:1014B0000AF069EF0AF0880E4924D96EDA6A000E44
:1014C000DA2203C0DFFF492A000ED76E000ED66E67
:1014D000D58E590E0318D8A470EF0AF072EF0AF0F7
:1014E0007EEF0AF04704D8A478EF0AF07AEF0AF00A
:1014F0007EEF0AF0010E466E82EF0AF0000E466E95
:10150000000E476E590E0318D8A489EF0AF08BEF2E
:101510000AF08DEF0AF0010E476E9E9AF2A493EF47
:101520000AF095EF0AF099EF0AF0010E456ED59E8C
:10153000F2949EA09EEF0AF0A0EF0AF0BCEF0AF032
:101540003C4A3D2A3DBEAEEF0AF03D5009E1F00EA7
:101550003C5CD8A0AEEF0AF0B0EF0AF0B7EF0AF0AB
:101560008C72010E446E000E3D6E000E3C6E6D0ED0
:10157000CF6E840ECE6E9E909EA2C1EF0AF0C3EF96
:101580000AF0C6EF0AF03A4A3B2A9E9202C0DAFFFE
:1015900001C0D9FF50921100066E8C968C84046AAB
:1015A00006AE01D0042A010E0416043204328C5017
:1015B00004187F0B04188C6E06C004F0060E056E2E
:1015C000D8900432052EE0EF0AF0010E0416043A1A
:1015D000044604468C500418BF0B04188C6E06C0D9
:1015E00004F0050E056ED8900432052EF3EF0AF0D4
:1015F000010E0416043A04468C500418DF0B04183C
:101600008C6E06C004F0043A0F0E0416010E041688
:10161000043A8C500418EF0B04188C6E030EE82E5D
:10162000FED700F08C86140EE82EFED78C9606C0EE
:1016300004F0D8900432D8900432D8900432010ECD
:101640000416043204328C5004187F0B04188C6E7C
:1016500006C004F0D8900432D8900432010E04166B
:10166000043A044604468C500418BF0B04188C6ED0
:1016700006C004F0D8900432010E0416043A044661
:101680008C500418DF0B04188C6E06C004F0010E99
:101690000416043A8C500418EF0B04188C6E030ED9
:1016A000E82EFED700F08C86140EE82EFED78C961E
:1016B000140EE82EFED7560E046EB60EE82EFED798
:1016C000042EFCD71200066E8C968C94046A06AE2B
:1016D00001D0042A010E0416043204328C5004187E
:1016E0007F0B04188C6E06C004F0060E056ED890B1
:1016F0000432052E77EF0BF0010E0416043A04466F
:1017000004468C500418BF0B04188C6E06C004F0FD
:10171000050E056ED8900432052E8AEF0BF0010EEF
:101720000416043A04468C500418DF0B04188C6E1F
:1017300006C004F0043A0F0E0416010E0416043A13
:101740008C500418EF0B04188C6E030EE82EFED795
:1017500000F08C86140EE82EFED78C9606C004F09E
:10176000D8900432D8900432D8900432010E041676
:10177000043204328C5004187F0B04188C6E06C09F
:1017800004F0D8900432D8900432010E0416043AC2
:10179000044604468C500418BF0B04188C6E06C017
:1017A00004F0D8900432010E0416043A04468C501A
:1017B0000418DF0B04188C6E06C004F0010E04162A
:1017C000043A8C500418EF0B04188C6E030EE82EAC
:1017D000FED700F08C86140EE82EFED78C96560E9F
:1017E000046EB60EE82EFED7042EFCD71200959E8E
:1017F000959C959A9598959695948C9E8C9C8C9A90
:101800008C988C968C94560E076EB60EE82EFED7EA
:10181000072EFCD7560E076EB60EE82EFED7072E03
:10182000FCD7560E076EB60EE82EFED7072EFCD755
:10183000560E076EB60EE82EFED7072EFCD7560EB4
:10184000076EB60EE82EFED7072EFCD7560E076E93
:10185000B60EE82EFED7072EFCD7010E086E8C9E22
:101860008C9C8C8A8C888C968C948C9E8C9C8C8A7C
:101870008C888C868C94140EE82EFED78C9E8C9CC3
:101880008C8A8C888C968C94560E076EB60EE82E39
:10189000FED7072EFCD7082A030E086452EF0CF07F
:1018A00054EF0CF02FEF0CF08C9E8C9C8C8A8C9853
:1018B0008C968C948C9E8C9C8C8A8C988C868C9428
:1018C000140EE82EFED78C9E8C9C8C8A8C988C965D
:1018D0008C94560E076EB60EE82EFED7072EFCD758
:1018E000280E63EC0BF0100E63EC0BF0010E63ECB2
:1018F0000BF00F0E63EC0BF01200063407340D6E84
:101900000D50D8A486EF0CF088EF0CF092EF0CF09D
:10191000000E046E000E056E000E066E000E076EC1
:10192000FFEF0CF004C008F005C009F006C00AF093
:1019300007C00BF0200EA2EF0CF0D8900B320A3249
:1019400009320832E82E9DEF0CF008500C6E068E1E
:10195000FF0E0416FF0E0516FF0E0616000E0716E4
:10196000960E0D5E0DBEB9EF0CF0B7EF0CF0CFEF99
:101970000CF00D50800A970FD8B0C1EF0CF0C3EFF8
:101980000CF0C5EF0CF088EF0CF0D890073206325F
:10199000053204320D3EC5EF0CF0E7EF0CF01F0EE0
:1019A0000D64D5EF0CF0D7EF0CF0DFEF0CF088EF03
:1019B0000CF0D89004360536063607360D060D5065
:1019C000D8A4E5EF0CF0E7EF0CF0D9EF0CF00C50D9
:1019D000D8B4EDEF0CF0EFEF0CF0F7EF0CF0071EC2
:1019E000061E051E046C000E05220622072204C0F6
:1019F00004F005C005F006C006F007C007F01200AD
:101A0000000E1C14246E000E1D14256E800E1E1474
:101A1000266E7F0E1F14276E2450251026102710C7
:101A2000D8A415EF0DF017EF0DF01FEF0DF0000E1D
:101A30001C6E000E1D6E000E1E6E000E1F6E000E40
:101A40002014246E000E2114256E800E2214266EA2
:101A50007F0E2314276E2450251026102710D8A49B
:101A600034EF0DF036EF0DF03EEF0DF0000E206E6E
:101A7000000E216E000E226E000E236E1FAE43EF8D
:101A80000DF045EF0DF04EEF0DF01C6C1D1ED8B0A3
:101A90001D2A1E1ED8B01E2A800E1F5623AE53EFDD
:101AA0000DF055EF0DF05EEF0DF0206C211ED8B05B
:101AB000212A221ED8B0222A800E2356000E1C1A7C
:101AC000000E1D1A000E1E1A800E1F1A000E201A7C
:101AD000000E211A000E221A800E231A20501C5CC0
:101AE00021501D5822501E5823501F58D8B07BEF4C
:101AF0000DF07DEF0DF080EF0DF0D89081EF0DF03F
:101B0000D88012000F0EC112F00E926EFC0E946E71
:101B100095909592000E896E000E8B6E000E8C6E65
:101B2000F28EF28CAFEC0EF0D5EC0EF0BEEC0EF0B7
:101B3000D59EF7EC0BF00C0E63EC0BF0000E076E6D
:101B4000270E086E080E096E010EEEEC0DF0CAECC1
:101B50000EF0800E286E250E296E000E2A6E000EE5
:101B60002B6E6EEC08F08B828B90800E286E250E0B
:101B7000296E000E2A6E000E2B6E6EEC08F0010E20
:101B800040EC0EF04550D8B4C8EF0DF0CAEF0DF0A0
:101B9000DDEF0DF04804D8A4D0EF0DF0D2EF0DF03A
:101BA000DBEF0DF088C036F0376A89C038F0396A4B
:101BB000000E40EC0EF0000E456E4450D8B4E3EF3A
:101BC0000DF0E5EF0DF0C2EF0DF0010E40EC0EF060
:101BD000000E446EC2EF0DF007EF00F00C6E05EF43
:101BE0000EF00750800F0D6E22EF0EF00750C00F61
:101BF0000D6E22EF0EF00750940F0D6E22EF0EF0D7
:101C00000750D40F0D6E22EF0EF00C500A6E0B6AC7
:101C10000B50000AD8B40FEF0EF022EF0EF00A506E
:101C2000010AD8B4F1EF0DF0030AD8B4F6EF0DF0C5
:101C3000010AD8B4FBEF0DF0070AD8B400EF0EF09C
:101C400022EF0EF00D5063EC0BF031EF0EF008C0F8
:101C5000F6FF09C0F7FF0800F550CCEC0AF0084A7F
:101C6000092A08C0F6FF09C0F7FF0800F55000096F
:101C7000D8A43DEF0EF03FEF0EF027EF0EF012006C
:101C8000066E53EF0EF08982898089948996000E42
:101C9000486E68EF0EF08984898689928990010EDA
:101CA000486E68EF0EF00650046E056A0550000A93
:101CB000D8B45DEF0EF068EF0EF00450000AD8B40F
:101CC00043EF0EF0010AD8B44BEF0EF068EF0EF0C0
:101CD0001200BE0EF66E1D0EF76E000EF86E00EED0
:101CE0004AF010EE06F00900F5CFEEFFE550E150A6
:101CF000FAE100EE60F0460EEE6AE806FDE100EE65
:101D00003AF0100EEE6AE806FDE150905092000E97
:101D1000F86E000182EF0DF0000E181A000E191A6D
:101D2000000E1A1A800E1B1A14C004F015C005F01C
:101D300016C006F017C007F018C008F019C009F067
:101D40001AC00AF01BC00BF041EC04F004C014F000
:101D500005C015F006C016F007C017F01200F28A91
:101D6000F294D59CD59AD596D550F80B0309D56E2B
:101D7000000ED76E000ED66ED58E1200CA50FC0B28
:101D80000209CA6E780ECA12FA0ECB6ECA849E92EF
:101D90009D821200AC98AC8AAC9CAB8EAB9CAB889D
:101DA000AC84B8969E9A9D8A12009E909D80CD8E9E
:101DB000CD9CCD96CD92300ECD12CD8012006B0809
:041DC0007A08340861
:020000040020DA
:08000000FFFFFFFFFFFFFFFF00
:020000040030CA
:0E000000040E191EFF8080FF0FC00FE00F409E
:00000001FF
